0000000120040215O20040216SYN001  20040219PO1379              0000579200001014000010991Wrap in red paper, gift tag to read "Thanks!"                                                                     
0000000220040215O20040217JON001  20040220Ref John Doe        0000199800000350000010990                                                                                                                  
0000000320040216O20040218JAN001  20040220CR 321              0035649900062387000010991Pink bow                                                                                                          
0000000420040217O20040218SYN001  00000000666                 0000881200001542000010991Include 10 red roses                                                                                              
0000000520040217O20040219SYN001  0000000066454763            0002625800004595000010991Plain,clear wrap                                                                                                  
0000000620040217O20040217JAN001  20040219                    0000169900000297000010990                                                                                                                  
0000000720040218O20040218JON001  20040220ABC                 0000069800000122000010991Orange wrap with get well card                                                                                    
0000000820040218O20040219JON001  20040221REF ABC             0000049900000087000010991Sorry you are leaving card                                                                                        
0000000920040220O20040220JAN001  00000000Ref 333             0000219700000384000010991Red wrap please                                                                                                   
0000001020040220O20040220JON001  00000000D8755678            0000299700000524000010990                                                                                                                  
0000001120040220O20040220SYN001  20040220                    0000659400001154000010990                                                                                                                  
0000001220040220O20040220SYN001  00010101PON4456             0007194800012591000010990                                                                                                                  
0000001320040227O20040227SYN001  20040227assdfgsdg           0000776100001358000010991zfdgsdfg                                                                                                          
0000001420040227O20040227SYN001  20040227ord123              0001899500003324000010991Happy Birthday Card required.                                                                                     
0000001520040312O20040312SYN001  200403122356                0000639700001119000010991yes please                                                                                                        
0000001620040316O20040316SYN001  20040316                    0012865600022515000010990                                                                                                                  
0000001720040319O20040319SYN001  20040319my ref.             0005247300009183000010991lots of red or pink bows                                                                                          
0000001820040329O20040329SYN001  20040329                    0000599500001049000010990                                                                                                                  
0000001920040329O20040329SYN001  20040329dakdakdkas          0007298700012773000010991sadasdasasd                                                                                                       
0000002020040421O20040421SYN001  2004042134567               0000868900001521000010991asdgfdfdsfg                                                                                                       
0000002120040506O20040506SYN001  20040506sdas                0000987600001728000010991sdfsdf                                                                                                            
0000002220040517O20040517SYN001  2004051706614               0003927300006873000010991Blue ribbon please :)                                                                                             
0000002320040614O20040614SYN001  20040614                    0000699500001224000010990                                                                                                                  
0000002420040622O20040622SYN001  20040622                    0001199800002100000010990                                                                                                                  
0000002520040629O20040629SYN001  20040629123456              0000399400000699000010991Special gift for Dayton Data Processing                                                                           
0000002620040803O20040803SYN001  20040803123123              0001738900003043000010991123123123123                                                                                                      
0000002720040810O20040810SYN001  20040810DOUGLASDEMO1        0000819600001434000010991Nice blue paper please                                                                                            
0000002820041013O20041013SYN001  20041013ORDER2856           0001618800002833000010990                                                                                                                  
0000002920041215O20041215SYN001  20041215                    0001328400002325000010990                                                                                                                  
0000003020050217O20050217SYN001  20050217LALLEMAND           0003199000005598000010991asfdasdfsadfsdfsdf                                                                                                
0000003120050711O20050711SYN001  20050711                    0003808500006665000010990                                                                                                                  
0000003220050811O20050811SYN001  20050811                    0002946400005156000010990                                                                                                                  
0000003320050920O20050920SYN001  20050920                    0000479700000839000010990                                                                                                                  
0000003420050927O20050927SYN001  20050927                    0001748800003060000010990                                                                                                                  
0000003520051212O20051212SYN001  20051212                    0001399600002449000010990                                                                                                                  
0000003620051214O20051214SYN001  20051214                    0000898300001572000010990                                                                                                                  
0000003720051214O20051214SYN001  20051214                    0001747800003059000010990                                                                                                                  
0000003820060126O20060126SYN001  20060126                    0001497500002621000010990                                                                                                                  
0000003920060209O20060209SYN001  20060209D5673               0005948300004312000017000                                                                                                                  
0000004020060211O20060211JAN001  20060211                    0002295000001664000010000                                                                                                                  
0000004120060320O20060320SYN001  20060320                    0000639500001119000010990                                                                                                                  
0000004220060320O20060320SYN001  20060320                    0000699800001225000010990                                                                                                                  
0000004320060321O20060321SYN001  20060321435325345           0000628800001100000010991sdfsdfsfsdfs                                                                                                      
0000004420060329O20060329SYN001  20060329CLEVELAND           0000759000001328000010990                                                                                                                  
0000004520060807O20060807SYN001  20060807sdsfsdf             0001548800002710000010991dadjajhdy asjhfujyasfds                                                                                           
0000004620060814O20060814SYN001  20060814sfsdf               0000399600000699000010991sdfsdfsdfsdfsdf                                                                                                   
0000004720061010O20061010SYN001  20061010                    0001317300002305000010991Nice pink paper please, with flowers :)                                                                           
0000004820061018O20061018SYN001  20061018fwerwer             0000529000000926000010990                                                                                                                  
0000004920061030O20061030SYN001  20061030                    0000598400001047000010990                                                                                                                  
0000005020070109O20070109SYN001  20070109                    0000599900001050000010990                                                                                                                  
0000005120070109O20070109SYN001  20070109                    0013005600022760000010991 ckjasdkdskfjasm, dfjsahdfjsd fjhasj f                                                                            
0000005220070618O20070618SYN001  20070618                    0002098500003672000010990                                                                                                                  
0000005320070727O20070727SYN001  20070727                    0000939200001644000010990                                                                                                                  
0000005420070924O20070924SYN001  20070924TUPELO              0001607200002813000010990                                                                                                                  
0000005520071203O20071203SYN001  20071203                    0000599400001049000010990                                                                                                                  
0000005620080123O20080123SYN001  20080123                    0001518600002658000010990                                                                                                                  
0000005720080123O20080123SYN001  20080123asdasd              0000748500001310000010990                                                                                                                  
0000005820080125O20080125SYN001  20080125                    0003997000006995000010990                                                                                                                  
0000005920081201O20081201SYN001  20081201                    0006995000012241000010990                                                                                                                  
0000006020081201O20081201SYN001  20081201                    0000000000000000000000000                                                                                                                  
9999999900000060                                                                                                                                                                                       
