00000001001030715880210 Disney Little Golden Books Slipcase Set (includes Snow White, Cinderella, Pet000002000002001699003398000595         
00000001002B000066B5MDisney's Winnie The Pooh                                                        000001000001002394002394000419         
00000002001B000059ORBDISNEY Adventures in Typing with Timon & Pumbaa                                 000001000001000999000999000175         
00000002002B00006HYP4DISNEY ESL - BEGINNER                                                           000001000001000999000999000175         
00000003001B00002NDR1KB Gear Disney Sketchboard Studio                                               000001000001006999006999001225         
00000003002B00006FRUD3ds max 4                                                                       000001000001349500349500061163         
00000004001B00005N7PUDisney Adventures                                                               000001000001003490003490000611         
00000004002B00005QDWKDisney Magazine                                                                 000001000001001596001596000279         
00000004003B000066B5MDisney's Winnie The Pooh                                                        000001000001002394002394000419         
00000004004B00006KBY1Disney Catalogue                                                                000001000001001332001332000233         
00000005001B00000072LBeauty and the Beat: Favorite Disney Tunes in Steelband Style                   000001000001001598001598000280         
00000005002B000001D2WAladdin                                                                         000002000002001498002996000524         
00000005003B000001M3UAladdin & King of Thieves                                                       000003000003000998002994000524         
00000005004B000001M9HAristocats                                                                      000004000004000998003992000699         
00000005005B000001MAQAlice in Wonderland                                                             000005000005001498007490001311         
00000005006B000056QDMAlice in Wonderland                                                             000006000006001198007188001258         
00000006001030715880210 Disney Little Golden Books Slipcase Set (includes Snow White, Cinderella, Pet000001000001001699001699000297         
00000007001B00005B6CGAnimal Rock                                                                     000001000001000698000698000122         
000000080010394925718101 DALMATIANS                                                                  000001000001000499000499000087         
000000090010394925718101 DALMATIANS                                                                  000001000001000499000499000087         
00000009002B000002SMEWhen You Wish Upon a Star: Barbara Hendricks Sings Disney                       000001000001001698001698000297         
00000010001B0000B298XDisney'S Xmas Tree Celebration 9 1/4" Round Bowl L/S                            000001000001000999000999000175         
00000010002B0000DCVGXPinocchio Salt & Pepper Shakers                                                 000002000002000999001998000350         
000000110016305870187Annie                                                                           000001000001001499001499000262         
00000011002B00001QEE3101 Dalmatians                                                                  000001000001003499003499000612         
00000011003B00005QDWKDisney Magazine                                                                 000001000001001596001596000279         
00000012001B000065UF1Disney 5555-04 Mickey Cookie Baker                                              000010000010006995069950012241         
00000012002B0000B298XDisney'S Xmas Tree Celebration 9 1/4" Round Bowl L/S                            000001000001000999000999000175         
00000012003B0000DCVGXPinocchio Salt & Pepper Shakers                                                 000001000001000999000999000175         
00000013001030715880210 Disney Little Golden Books Slipcase Set (includes Snow White, Cinderella, Pet000003000003001699005097000892         
00000013002B00006KBY1Disney Catalogue                                                                000002000002001332002664000466         
00000014001B00002NDR1KB Gear Disney Sketchboard Studio                                               000001000001006999006999001225         
00000014002B00003CX8YBeauty and the Beast (Disney Special Platinum Edition)                          000004000004002999011996002099         
00000015001030715880210 Disney Little Golden Books Slipcase Set (includes Snow White, Cinderella, Pet000002000002001699003398000595         
000000150026305327025A Bug's Life                                                                    000001000001002999002999000525         
00000016001030715880210 Disney Little Golden Books Slipcase Set (includes Snow White, Cinderella, Pet000001000001001699001699000297         
00000016002B00004T2SJBuzz Lightyear of Star Command: The Adventure Begins                            000042000042002999125958022043         
00000016003B00008DD52DISNEY  Disney/Pixar Activity Collection ( Windows/Macintosh )                  000001000001000999000999000175         
000000170016305090602Beauty and the Beast - The Enchanted Christmas                                  000007000007003499024493004286         
00000017002B000065UF1Disney 5555-04 Mickey Cookie Baker                                              000004000004006995027980004897         
00000018001B00009K3SPVillaWare 5555-14 Disney Pooh Toaster 2-Slice                                   000001000001005995005995001049         
00000019001B00002NDR2KB Gear Learning Keyboard Featuring Disney's Winnie the Pooh                    000012000012005999071988012598         
00000019002B000059ORBDISNEY Adventures in Typing with Timon & Pumbaa                                 000001000001000999000999000175         
00000020001030715880210 Disney Little Golden Books Slipcase Set (includes Snow White, Cinderella, Pet000001000001001699001699000297         
000000200020307740129101 Dalmatians (Sight & Sound)                                                  000001000001000995000995000174         
00000020003B00009K3SPVillaWare 5555-14 Disney Pooh Toaster 2-Slice                                   000001000001005995005995001049         
00000021001030715880210 Disney Little Golden Books Slipcase Set (includes Snow White, Cinderella, Pet000001000001001699001699000297         
000000210020307740129101 Dalmatians (Sight & Sound)                                                  000001000001000995000995000174         
00000021003B000066B5MDisney's Winnie The Pooh                                                        000003000003002394007182001257         
00000022001B000065UF1Disney 5555-04 Mickey Cookie Baker                                              000005000005006995034975006121         
000000220026305327025A Bug's Life                                                                    000001000001002999002999000525         
000000220030788812947101 Dalmatians Christmas                                                        000001000001001299001299000227         
00000023001B000065UF1Disney 5555-04 Mickey Cookie Baker                                              000001000001006995006995001224         
00000024001B00002NDR2KB Gear Learning Keyboard Featuring Disney's Winnie the Pooh                    000002000002005999011998002100         
000000250010736420339Aladdin                                                                         000004000004000399001596000279         
000000250020736422749Adorable Ariel                                                                  000001000001000399000399000070         
00000025003B00007E1KCCinderella's Castle Designer                                                    000001000001001999001999000350         
00000026001B00006ANDPBraun Oral-B EB10-1 Power Toothbrush Replacement Brush Head, 1 Kids Refill, Disn000003000003000799002397000419         
00000026002B00009K3SPVillaWare 5555-14 Disney Pooh Toaster 2-Slice                                   000001000001005995005995001049         
000000260036305327025A Bug's Life                                                                    000003000003002999008997001574         
000000270016301390687Accidental Adventurers                                                          000001000001001299001299000227         
000000270021558908374101 Dalmatians                                                                  000003000003002299006897001207         
00000028001B00002NDR2KB Gear Learning Keyboard Featuring Disney's Winnie the Pooh                    000002000002005999011998002100         
000000280020670883298ABC Pop! (Picture Books)                                                        000001000001001599001599000280         
00000028003630191905XAdventures of Rocky and Bullwinkle Vol. 1: Mona Moose                           000001000001000995000995000174         
00000028004B00005QDWKDisney Magazine                                                                 000001000001001596001596000279         
000000290010964849771Flying An Octopus - Raising Balloon Art to New Heights                          000002000002002995005990001048         
000000290021558908374101 Dalmatians                                                                  000001000001002299002299000402         
00000029003B00001LCDNCurse You! Red Baron                                                            000005000005000999004995000874         
00000030001B00002NDR2KB Gear Learning Keyboard Featuring Disney's Winnie the Pooh                    000005000005005999029995005249         
00000030002B00001LCDPCombat Flight Simulator                                                         000001000001001995001995000349         
000000310010790749610Astaire & Rogers Collection Volume 1 (Flying Down to Rio, The Gay Divorcee, Robe000004000004006998027992004899         
000000310026301390687Accidental Adventurers                                                          000006000006001299007794001364         
000000310031558908374101 Dalmatians                                                                  000001000001002299002299000402         
000000320010964849771Flying An Octopus - Raising Balloon Art to New Heights                          000004000004002995011980002097         
000000320026304810881America's Flying Aces: Blue Angels - 50th Anniversary                           000007000007001498010486001835         
000000320030790749610Astaire & Rogers Collection Volume 1 (Flying Down to Rio, The Gay Divorcee, Robe000001000001006998006998001225         
00000033001B00004Z5EDFellowes 3.5IN HD 1.44MB Pre-FMT IBM Disney 5-Pack                              000003000003001599004797000839         
00000034001B00002NDR2KB Gear Learning Keyboard Featuring Disney's Winnie the Pooh                    000001000001005999005999001050         
000000340020782011276The Flying Tigers                                                               000003000003001498004494000786         
00000034003B000065UF1Disney 5555-04 Mickey Cookie Baker                                              000001000001006995006995001224         
00000035001B000068NJ8My First LeapPad Book: Jay Jay High-Flying Adventures                           000002000002000999001998000350         
00000035002B000069AT3Motorola Disney Classic 2-Way Radios (Pair)                                     000002000002005999011998002100         
00000036001045004231620,000 Leagues Under the Sea: Adapted from Walt Disney Productions' Screen Prese000003000003000999002997000524         
00000036002051768649X101 Dalmations : Disney Animated                                                000002000002000599001198000210         
00000036003B00005N7Q9Flying                                                                          000001000001004788004788000838         
00000037001B00000072LBeauty and the Beat: Favorite Disney Tunes in Steelband Style                   000006000006001598009588001678         
00000037002B000000MELBarren County                                                                   000002000002001698003396000594         
000000370036304810881America's Flying Aces: Blue Angels - 50th Anniversary                           000003000003001498004494000786         
000000380010964849771Flying An Octopus - Raising Balloon Art to New Heights                          000005000005002995014975002621         
000000390016301390687Accidental Adventurers                                                          000005      001299006495000471         
000000390026305870187Annie                                                                           000002      001499002998000217         
00000039003B00005NZ1V4X4 Evolution 2                                                                 000010      004999049990003624         
00000040001007157719XThe ABCs of Safe Flying                                                         000010      002295022950001664         
00000041001B000000HQCAnother Monty Python CD                                                         000002000002001199002398000420         
00000041002B000000MELBarren County                                                                   000001000001001698001698000297         
000000410031558908374101 Dalmatians                                                                  000001000001002299002299000402         
00000042001B00002NDR2KB Gear Learning Keyboard Featuring Disney's Winnie the Pooh                    000001000001005999005999001050         
00000042002B00004Z5O2Fellowes Pooh and Friends Mousepad - Disney Characters                          000001000001000999000999000175         
00000043001007157719XThe ABCs of Safe Flying                                                         000002000002002295004590000803         
00000043002B000000MELBarren County                                                                   000001000001001698001698000297         
00000044001B00004Z5EDFellowes 3.5IN HD 1.44MB Pre-FMT IBM Disney 5-Pack                              000001000001001599001599000280         
00000044002B00004Z5O2Fellowes Pooh and Friends Mousepad - Disney Characters                          000004000004000999003996000699         
00000044003B00001LCDPCombat Flight Simulator                                                         000001000001001995001995000349         
00000045001B00002NDR2KB Gear Learning Keyboard Featuring Disney's Winnie the Pooh                    000002000002005999011998002100         
00000045002B0000014BTWhen You Wish Upon a Star: A Salute to Walt Disney                              000005000005000698003490000611         
00000046001B00004Z5O4Fellowes Totally Tigger Mousepad - Disney Characters                            000002000002000999001998000350         
00000046002B00004Z5O5Fellowes Winnie The Pooh & Tigger Too Mousepad - Disney Characters              000002000002000999001998000350         
00000047001B00001LCDPCombat Flight Simulator                                                         000005000005001995009975001746         
00000047002B00004Z5EDFellowes 3.5IN HD 1.44MB Pre-FMT IBM Disney 5-Pack                              000002000002001599003198000560         
000000480010070633029Advanced Aerobatics                                                             000001000001002995002995000524         
00000048002007157719XThe ABCs of Safe Flying                                                         000001000001002295002295000402         
000000490010453030777101 Dalmatians: Lots of Spots Bath Book                                         000002000002000598001196000209         
00000049002B00005N7Q9Flying                                                                          000001000001004788004788000838         
00000050001B00002NDR2KB Gear Learning Keyboard Featuring Disney's Winnie the Pooh                    000001000001005999005999001050         
00000051001B00000072LBeauty and the Beat: Favorite Disney Tunes in Steelband Style                   000067000067001598107066018737         
000000510021558908374101 Dalmatians                                                                  000010000010002299022990004023         
00000052001B000065UF1Disney 5555-04 Mickey Cookie Baker                                              000003000003006995020985003672         
00000053001B00006ANDPBraun Oral-B EB10-1 Power Toothbrush Replacement Brush Head, 1 Kids Refill, Disn000003000003000799002397000419         
00000053002B000065UF1Disney 5555-04 Mickey Cookie Baker                                              000001000001006995006995001224         
000000540010071422587101 Things To Do After You Get Your Private Pilot's License                     000005000005002495012475002183         
00000054002B000000HQCAnother Monty Python CD                                                         000003000003001199003597000629         
00000055001B00001LCDNCurse You! Red Baron                                                            000001000001000999000999000175         
00000055002B00004Z5O2Fellowes Pooh and Friends Mousepad - Disney Characters                          000005000005000999004995000874         
000000560010964849771Flying An Octopus - Raising Balloon Art to New Heights                          000002000002002995005990001048         
000000560021558908374101 Dalmatians                                                                  000004000004002299009196001609         
000000570010071422587101 Things To Do After You Get Your Private Pilot's License                     000003000003002495007485001310         
00000058001B000065UF1Disney 5555-04 Mickey Cookie Baker                                              000004000004006995027980004897         
00000058002B00009K3SPVillaWare 5555-14 Disney Pooh Toaster 2-Slice                                   000002000002005995011990002098         
00000059001B000065UF1Disney 5555-04 Mickey Cookie Baker                                              000010000000006995069950012241         
00000060001007157719XThe ABCs of Safe Flying                                                         000001000000002295000000000000         
000000610010307001164101 Dalmatians                                                                  000001000000000299000299000000         
000000620010312007604Aerobatics Today                                                                000001000000001395001395000000         
000000630010307001164101 Dalmatians                                                                  000001000000000299000299000000         
00000063002007157719XThe ABCs of Safe Flying                                                         000002000000002295004590000000         
000000630030736422749Adorable Ariel                                                                  000003000000000399001197000000         
00000064001B00002NDRLMicrosoft Flight Simulator 2000                                                 000001000000005995005995000000         
000000650016301390687Accidental Adventurers                                                          000001000000001299001299000000         
00000066001630547253XThe Flying Serpent                                                              000001000000000999000999000000         
000000660026305090602Beauty and the Beast - The Enchanted Christmas                                  000001000000003499003499000000         
000000670010307001164101 Dalmatians                                                                  000001000000000299000299000000         
000000670020099652315Adventure Series Biggles Flying Adventure                                       000005000000000999004995000000         
00000067003030715880210 Disney Little Golden Books Slipcase Set (includes Snow White, Cinderella, Pet000001000000001699001699000000         
00000068001630210259612 Days of Christmas                                                            000001000000001198001198000000         
00000068002B000000MESAt Home/Around the World                                                        000001000000001698001698000000         
00000068003B000000MGVBarinya (The Russian Dance, "The Lady")                                         000001000000001698001698000000         
000000690010307001164101 Dalmatians                                                                  000001000000000299000299000000         
00000069002B00005B6KLThe Flying Saucer                                                               000010000000002499024990000000         
00000070001B000FVWJ6W0.38X HD XL PRO FISHEYE LENS W/ MACRO FOR CANON S2 IS S3 IS                     00000100000000799y00799y000000         
00000070002B000FVULYO0.38X HD FISHEYE LENS W/ MACRO FOR 43MM CAMCORDERS                              00000100000000799y00799y000000         
00000071001B00006ANDPBraun Oral-B EB10-1 Power Toothbrush Replacement Brush Head, 1 Kids Refill, Disn000005000000000799003995000000         
00000071002B0000ALBVWPixter Deluxe Disney                                                            000004000000000999003996000000         
